:100000000C942A000C9445000C9445000C94450077
:100010000C9445000C9445000C9445000C9445004C
:100020000C9445000C9445000C9445000C9445003C
:100030000C9445000C9447000C9445000C9445002A
:100040000C9445000C9445000C9445000C9445001C
:100050000C94450011241FBECFE5D8E0DEBFCDBF14
:1000600010E0A0E6B0E0EAEAF1E002C005900D92EF
:10007000A236B107D9F710E0A2E6B0E001C01D92A8
:10008000A236B107E1F70C945B000C9400001F92BC
:100090000F920FB60F9211248F938CB18093600052
:1000A0008F910F900FBE0F901F90189580E090E0F9
:1000B0000197F1F70895CFE5D8E0DEBFCDBF8FEF10
:1000C00084BB11BA80E98AB986E880BD83E389B927
:1000D000789480916000813471F483E085BB0E9444
:1000E000560089E085BB0E9456008CE085BB0E94CB
:1000F000560086E01FC08234F9F483E085BB0E947D
:10010000560081E085BB0E94560089E085BB0E94B5
:10011000560088E085BB0E9456008CE085BB0E949B
:10012000560084E085BB0E94560086E085BB0E9495
:10013000560082E085BB36C0833451F486E085BB2F
:100140000E9456008CE085BB0E94560089E01BC0CF
:100150008434F1F482E085BB0E94560086E085BBC2
:100160000E94560084E085BB0E9456008CE085BB4F
:100170000E94560088E085BB0E94560089E085BB3E
:100180000E94560081E085BB0E94560083E0D2CFDA
:100190008F3409F09ECF15BA0E9456000E94560077
:0A01A0000E9456000E94560094CF02
:0201AA004F0004
:00000001FF
